{
  "address": "0x5d936aFd24449C15d834E26e86a24ABc55f9d975",
  "abi": [
    {
      "inputs": [],
      "name": "InvalidDropId",
      "type": "error"
    },
    {
      "anonymous": false,
      "inputs": [
        {
          "indexed": true,
          "internalType": "uint256",
          "name": "dropId",
          "type": "uint256"
        }
      ],
      "name": "DropCreated",
      "type": "event"
    },
    {
      "anonymous": false,
      "inputs": [
        {
          "indexed": true,
          "internalType": "uint256",
          "name": "dropId",
          "type": "uint256"
        },
        {
          "indexed": true,
          "internalType": "uint256",
          "name": "dripId",
          "type": "uint256"
        }
      ],
      "name": "Minted",
      "type": "event"
    },
    {
      "anonymous": false,
      "inputs": [
        {
          "indexed": true,
          "internalType": "uint256",
          "name": "dropId",
          "type": "uint256"
        },
        {
          "indexed": true,
          "internalType": "uint256",
          "name": "dripId",
          "type": "uint256"
        }
      ],
      "name": "Mutated",
      "type": "event"
    },
    {
      "anonymous": false,
      "inputs": [
        {
          "indexed": true,
          "internalType": "address",
          "name": "previousOwner",
          "type": "address"
        },
        {
          "indexed": true,
          "internalType": "address",
          "name": "newOwner",
          "type": "address"
        }
      ],
      "name": "OwnershipTransferred",
      "type": "event"
    },
    {
      "anonymous": false,
      "inputs": [
        {
          "indexed": true,
          "internalType": "uint256",
          "name": "dropId",
          "type": "uint256"
        },
        {
          "indexed": false,
          "internalType": "uint256",
          "name": "fundsWithdrawn",
          "type": "uint256"
        }
      ],
      "name": "Withdrawn",
      "type": "event"
    },
    {
      "inputs": [
        {
          "internalType": "uint256",
          "name": "maxSupply",
          "type": "uint256"
        },
        {
          "internalType": "uint256",
          "name": "mintPrice",
          "type": "uint256"
        },
        {
          "internalType": "uint8",
          "name": "versions",
          "type": "uint8"
        }
      ],
      "name": "createDrop",
      "outputs": [],
      "stateMutability": "nonpayable",
      "type": "function"
    },
    {
      "inputs": [
        {
          "internalType": "uint256",
          "name": "dropId",
          "type": "uint256"
        },
        {
          "internalType": "uint256",
          "name": "dripId",
          "type": "uint256"
        }
      ],
      "name": "dripInfo",
      "outputs": [
        {
          "components": [
            {
              "internalType": "uint256",
              "name": "id",
              "type": "uint256"
            },
            {
              "internalType": "address",
              "name": "owner",
              "type": "address"
            },
            {
              "components": [
                {
                  "internalType": "uint8",
                  "name": "version",
                  "type": "uint8"
                },
                {
                  "internalType": "enum DripStatus",
                  "name": "status",
                  "type": "uint8"
                },
                {
                  "components": [
                    {
                      "internalType": "contract IERC721",
                      "name": "tokenContract",
                      "type": "address"
                    },
                    {
                      "internalType": "uint256",
                      "name": "tokenId",
                      "type": "uint256"
                    }
                  ],
                  "internalType": "struct DripMutation",
                  "name": "mutation",
                  "type": "tuple"
                }
              ],
              "internalType": "struct Drip",
              "name": "drip",
              "type": "tuple"
            }
          ],
          "internalType": "struct DripInfo",
          "name": "",
          "type": "tuple"
        }
      ],
      "stateMutability": "view",
      "type": "function"
    },
    {
      "inputs": [
        {
          "internalType": "uint256",
          "name": "dropId",
          "type": "uint256"
        }
      ],
      "name": "drop",
      "outputs": [
        {
          "internalType": "contract Drop",
          "name": "",
          "type": "address"
        }
      ],
      "stateMutability": "view",
      "type": "function"
    },
    {
      "inputs": [
        {
          "internalType": "uint256",
          "name": "dropId",
          "type": "uint256"
        }
      ],
      "name": "dropInfo",
      "outputs": [
        {
          "components": [
            {
              "internalType": "address",
              "name": "_contract",
              "type": "address"
            },
            {
              "internalType": "string",
              "name": "symbol",
              "type": "string"
            },
            {
              "internalType": "string",
              "name": "name",
              "type": "string"
            },
            {
              "internalType": "uint256",
              "name": "id",
              "type": "uint256"
            },
            {
              "internalType": "uint256",
              "name": "currentSupply",
              "type": "uint256"
            },
            {
              "internalType": "uint256",
              "name": "maxSupply",
              "type": "uint256"
            },
            {
              "internalType": "uint256",
              "name": "price",
              "type": "uint256"
            },
            {
              "internalType": "uint8",
              "name": "versions",
              "type": "uint8"
            },
            {
              "internalType": "string",
              "name": "contractURI",
              "type": "string"
            },
            {
              "internalType": "string",
              "name": "dropURI",
              "type": "string"
            },
            {
              "internalType": "string",
              "name": "baseURI",
              "type": "string"
            }
          ],
          "internalType": "struct DropInfo",
          "name": "",
          "type": "tuple"
        }
      ],
      "stateMutability": "view",
      "type": "function"
    },
    {
      "inputs": [],
      "name": "dropSupply",
      "outputs": [
        {
          "internalType": "uint256",
          "name": "",
          "type": "uint256"
        }
      ],
      "stateMutability": "view",
      "type": "function"
    },
    {
      "inputs": [
        {
          "internalType": "uint256",
          "name": "dropId",
          "type": "uint256"
        },
        {
          "internalType": "uint8",
          "name": "versionId",
          "type": "uint8"
        }
      ],
      "name": "mint",
      "outputs": [],
      "stateMutability": "payable",
      "type": "function"
    },
    {
      "inputs": [
        {
          "internalType": "uint256",
          "name": "dropId",
          "type": "uint256"
        },
        {
          "internalType": "uint256",
          "name": "dripId",
          "type": "uint256"
        },
        {
          "internalType": "contract IERC721",
          "name": "tokenContract",
          "type": "address"
        },
        {
          "internalType": "uint256",
          "name": "tokenId",
          "type": "uint256"
        }
      ],
      "name": "mutate",
      "outputs": [],
      "stateMutability": "nonpayable",
      "type": "function"
    },
    {
      "inputs": [],
      "name": "owner",
      "outputs": [
        {
          "internalType": "address",
          "name": "",
          "type": "address"
        }
      ],
      "stateMutability": "view",
      "type": "function"
    },
    {
      "inputs": [],
      "name": "renounceOwnership",
      "outputs": [],
      "stateMutability": "nonpayable",
      "type": "function"
    },
    {
      "inputs": [
        {
          "internalType": "uint256",
          "name": "dropId",
          "type": "uint256"
        },
        {
          "internalType": "string",
          "name": "newURI",
          "type": "string"
        }
      ],
      "name": "setBaseURI",
      "outputs": [],
      "stateMutability": "nonpayable",
      "type": "function"
    },
    {
      "inputs": [
        {
          "internalType": "uint256",
          "name": "dropId",
          "type": "uint256"
        },
        {
          "internalType": "string",
          "name": "newURI",
          "type": "string"
        }
      ],
      "name": "setContractURI",
      "outputs": [],
      "stateMutability": "nonpayable",
      "type": "function"
    },
    {
      "inputs": [
        {
          "internalType": "uint256",
          "name": "dropId",
          "type": "uint256"
        },
        {
          "internalType": "string",
          "name": "newURI",
          "type": "string"
        }
      ],
      "name": "setDropURI",
      "outputs": [],
      "stateMutability": "nonpayable",
      "type": "function"
    },
    {
      "inputs": [
        {
          "internalType": "address",
          "name": "newOwner",
          "type": "address"
        }
      ],
      "name": "transferOwnership",
      "outputs": [],
      "stateMutability": "nonpayable",
      "type": "function"
    },
    {
      "inputs": [
        {
          "internalType": "uint256",
          "name": "dropId",
          "type": "uint256"
        }
      ],
      "name": "withdraw",
      "outputs": [],
      "stateMutability": "nonpayable",
      "type": "function"
    }
  ],
  "transactionHash": "0xe12fe0559c863e61c5a446e2924873499755f10a6e6fe92edff3784ef13528ec",
  "args": [],
  "numDeployments": 1,
  "solcInputHash": "2765857be3a854aeae92c001fae2153b",
  "bytecode": "0x6080604052600060025534801561001557600080fd5b50600160005561002433610029565b61007b565b600180546001600160a01b038381166001600160a01b0319831681179093556040519116919082907f8be0079c531659141344cd1fd0a4f28419497f9722a3daafe3b4186f6b6457e090600090a35050565b6140348061008a6000396000f3fe608060405260043610620000ef5760003560e01c80635fdc9e0a11620000895780639ab717de11620000605780639ab717de146200027d578063a8126a5d14620002b1578063f2fde38b14620002d6578063fb2f1ffb14620002fb57600080fd5b80635fdc9e0a1462000225578063715018a614620002455780638da5cb5b146200025d57600080fd5b80632bb82d3d11620000ca5780632bb82d3d14620001825780632e1a7d4d14620001b65780633099c54914620001db57806333cfcb9f146200020057600080fd5b80630d88b46014620000f4578063211d9a53146200011b57806327a8e408146200015d575b600080fd5b3480156200010157600080fd5b50620001196200011336600462000b26565b62000312565b005b3480156200012857600080fd5b50620001406200013a36600462000b62565b620003e8565b6040516001600160a01b0390911681526020015b60405180910390f35b3480156200016a57600080fd5b50620001196200017c36600462000b92565b62000430565b3480156200018f57600080fd5b50620001a7620001a136600462000b62565b620004f6565b60405162000154919062000c28565b348015620001c357600080fd5b5062000119620001d536600462000b62565b620005d9565b348015620001e857600080fd5b5062000119620001fa36600462000e1c565b620006a0565b3480156200020d57600080fd5b50620001196200021f36600462000e1c565b6200071a565b3480156200023257600080fd5b5060025460405190815260200162000154565b3480156200025257600080fd5b50620001196200075c565b3480156200026a57600080fd5b506001546001600160a01b031662000140565b3480156200028a57600080fd5b50620002a26200029c36600462000eae565b62000774565b60405162000154919062000ed1565b348015620002be57600080fd5b5062000119620002d036600462000e1c565b62000802565b348015620002e357600080fd5b5062000119620002f536600462000f4e565b62000844565b620001196200030c36600462000f6e565b620008c7565b6200031c62000998565b60006200032860025490565b9050808484846040516200033c9062000aa1565b9384526020840192909252604083015260ff166060820152608001604051809103906000f08015801562000374573d6000803e3d6000fd5b50600082815260036020526040812080546001600160a01b0319166001600160a01b0393909316929092179091556002805491620003b28362000fa1565b909155505060405181907f01a6d33d95d2560a8c53f00317beb1d0364b3ecf2d43f647d2b4671df27f4f4590600090a250505050565b6000620003f460025490565b82106200041457604051632fca366560e01b815260040160405180910390fd5b506000908152600360205260409020546001600160a01b031690565b6200043a620009f4565b6200044584620003e8565b604051637f485a8d60e01b8152600481018590526001600160a01b038481166024830152604482018490523360648301529190911690637f485a8d90608401600060405180830381600087803b1580156200049f57600080fd5b505af1158015620004b4573d6000803e3d6000fd5b50506040518592508691507f68fb5eb2bb5ac5608baca07a0b3dbb454e113561ede5f9408b7c095298b68cdd90600090a3620004f06001600055565b50505050565b6200056060405180610160016040528060006001600160a01b03168152602001606081526020016060815260200160008152602001600081526020016000815260200160008152602001600060ff1681526020016060815260200160608152602001606081525090565b6200056b82620003e8565b6001600160a01b03166390a303ee6040518163ffffffff1660e01b8152600401600060405180830381865afa158015620005a9573d6000803e3d6000fd5b505050506040513d6000823e601f3d908101601f19168201604052620005d391908101906200103c565b92915050565b620005e362000998565b6000620005f082620003e8565b6040516351cff8d960e01b81523360048201526001600160a01b0391909116906351cff8d9906024016020604051808303816000875af115801562000639573d6000803e3d6000fd5b505050506040513d601f19601f820116820180604052508101906200065f9190620011a4565b9050817f0c875c8d391179c5cf7ad8303d268efd50b8beb78b671f85cd54bfb91eb8ef40826040516200069491815260200190565b60405180910390a25050565b620006aa62000998565b620006b582620003e8565b6001600160a01b03166379575294826040518263ffffffff1660e01b8152600401620006e29190620011be565b600060405180830381600087803b158015620006fd57600080fd5b505af115801562000712573d6000803e3d6000fd5b505050505050565b6200072462000998565b6200072f82620003e8565b6001600160a01b03166355f804b3826040518263ffffffff1660e01b8152600401620006e29190620011be565b6200076662000998565b62000772600062000a4f565b565b6200077e62000aaf565b6200078983620003e8565b6001600160a01b0316638b601b8a836040518263ffffffff1660e01b8152600401620007b791815260200190565b60c060405180830381865afa158015620007d5573d6000803e3d6000fd5b505050506040513d601f19601f82011682018060405250810190620007fb9190620011d3565b9392505050565b6200080c62000998565b6200081782620003e8565b6001600160a01b031663938e3d7b826040518263ffffffff1660e01b8152600401620006e29190620011be565b6200084e62000998565b6001600160a01b038116620008b95760405162461bcd60e51b815260206004820152602660248201527f4f776e61626c653a206e6577206f776e657220697320746865207a65726f206160448201526564647265737360d01b60648201526084015b60405180910390fd5b620008c48162000a4f565b50565b620008d1620009f4565b6000620008de83620003e8565b604051631efdd7db60e21b815260ff841660048201523360248201526001600160a01b039190911690637bf75f6c90349060440160206040518083038185885af115801562000931573d6000803e3d6000fd5b50505050506040513d601f19601f82011682018060405250810190620009589190620011a4565b905080837f8a9dcf4e150b1153011b29fec302d5be0c13e84fa8f56ab78587f778a32a90dd60405160405180910390a350620009946001600055565b5050565b6001546001600160a01b03163314620007725760405162461bcd60e51b815260206004820181905260248201527f4f776e61626c653a2063616c6c6572206973206e6f7420746865206f776e65726044820152606401620008b0565b60026000540362000a485760405162461bcd60e51b815260206004820152601f60248201527f5265656e7472616e637947756172643a207265656e7472616e742063616c6c006044820152606401620008b0565b6002600055565b600180546001600160a01b038381166001600160a01b0319831681179093556040519116919082907f8be0079c531659141344cd1fd0a4f28419497f9722a3daafe3b4186f6b6457e090600090a35050565b612d8380620012a583390190565b604080516060810182526000808252602082015290810162000ad062000ad5565b905290565b604080516060810190915260008082526020820190815260200162000ad0604051806040016040528060006001600160a01b03168152602001600081525090565b60ff81168114620008c457600080fd5b60008060006060848603121562000b3c57600080fd5b8335925060208401359150604084013562000b578162000b16565b809150509250925092565b60006020828403121562000b7557600080fd5b5035919050565b6001600160a01b0381168114620008c457600080fd5b6000806000806080858703121562000ba957600080fd5b8435935060208501359250604085013562000bc48162000b7c565b9396929550929360600135925050565b60005b8381101562000bf157818101518382015260200162000bd7565b50506000910152565b6000815180845262000c1481602086016020860162000bd4565b601f01601f19169290920160200192915050565b6020815262000c436020820183516001600160a01b03169052565b6000602083015161016080604085015262000c6361018085018362000bfa565b91506040850151601f198086850301606087015262000c83848362000bfa565b935060608701516080870152608087015160a087015260a087015160c087015260c087015160e087015260e0870151915061010062000cc68188018460ff169052565b8088015192505061012081878603018188015262000ce5858462000bfa565b94508088015192505061014081878603018188015262000d06858462000bfa565b90880151878203909201848801529350905062000d24838262000bfa565b9695505050505050565b634e487b7160e01b600052604160045260246000fd5b604051610160810167ffffffffffffffff8111828210171562000d6b5762000d6b62000d2e565b60405290565b6040516060810167ffffffffffffffff8111828210171562000d6b5762000d6b62000d2e565b6040805190810167ffffffffffffffff8111828210171562000d6b5762000d6b62000d2e565b604051601f8201601f1916810167ffffffffffffffff8111828210171562000de95762000de962000d2e565b604052919050565b600067ffffffffffffffff82111562000e0e5762000e0e62000d2e565b50601f01601f191660200190565b6000806040838503121562000e3057600080fd5b82359150602083013567ffffffffffffffff81111562000e4f57600080fd5b8301601f8101851362000e6157600080fd5b803562000e7862000e728262000df1565b62000dbd565b81815286602083850101111562000e8e57600080fd5b816020840160208301376000602083830101528093505050509250929050565b6000806040838503121562000ec257600080fd5b50508035926020909101359150565b815181526020808301516001600160a01b0390811682840152604080850151805160ff16918501919091529182015160c084019291906002811062000f2657634e487b7160e01b600052602160045260246000fd5b606085015260409190910151805190911660808401526020015160a090920191909152919050565b60006020828403121562000f6157600080fd5b8135620007fb8162000b7c565b6000806040838503121562000f8257600080fd5b82359150602083013562000f968162000b16565b809150509250929050565b60006001820162000fc257634e487b7160e01b600052601160045260246000fd5b5060010190565b805162000fd68162000b7c565b919050565b600082601f83011262000fed57600080fd5b815162000ffe62000e728262000df1565b8181528460208386010111156200101457600080fd5b6200102782602083016020870162000bd4565b949350505050565b805162000fd68162000b16565b6000602082840312156200104f57600080fd5b815167ffffffffffffffff808211156200106857600080fd5b9083019061016082860312156200107e57600080fd5b6200108862000d44565b620010938362000fc9565b8152602083015182811115620010a857600080fd5b620010b68782860162000fdb565b602083015250604083015182811115620010cf57600080fd5b620010dd8782860162000fdb565b604083015250606083015160608201526080830151608082015260a083015160a082015260c083015160c08201526200111960e084016200102f565b60e082015261010080840151838111156200113357600080fd5b620011418882870162000fdb565b82840152505061012080840151838111156200115c57600080fd5b6200116a8882870162000fdb565b82840152505061014080840151838111156200118557600080fd5b620011938882870162000fdb565b918301919091525095945050505050565b600060208284031215620011b757600080fd5b5051919050565b602081526000620007fb602083018462000bfa565b600081830360c0811215620011e757600080fd5b620011f162000d71565b835181526020840151620012058162000b7c565b60208201526080603f19830112156200121d57600080fd5b6200122762000d71565b6040850151620012378162000b16565b81526060850151600281106200124c57600080fd5b60208201526040607f19840112156200126457600080fd5b6200126e62000d97565b92506080850151620012808162000b7c565b835260a094909401516020830152604084810192909252908101929092525091905056fe6101206040526000610100908152600c906200001c908262000463565b50604080516020810190915260008152600d906200003b908262000463565b50604080516020810190915260008152600e906200005a908262000463565b503480156200006857600080fd5b5060405162002d8338038062002d838339810160408190526200008b916200052f565b6040518060400160405280600581526020016444524f502360d81b815250620000bf85620001da60201b620012e51760201c565b604051602001620000d2929190620005aa565b6040516020818303038152906040526040518060400160405280600581526020016444524f502360d81b8152506200011586620001da60201b620012e51760201c565b60405160200162000128929190620005aa565b60408051601f19818403018152919052600062000146838262000463565b50600162000155828262000463565b505050620001726200016c6200027e60201b60201c565b62000282565b6001600b5560008390036200019a5760405163066f305360e21b815260040160405180910390fd5b8060ff16600003620001bf57604051631e54b82b60e11b815260040160405180910390fd5b60809390935260a09190915260c05260ff1660e052620005cb565b60606000620001f483620002d460201b620013781760201c565b60010190506000816001600160401b03811115620002165762000216620003be565b6040519080825280601f01601f19166020018201604052801562000241576020820181803683370190505b5090508181016020015b600019016f181899199a1a9b1b9c1cb0b131b232b360811b600a86061a8153600a85049450846200024b57509392505050565b3390565b600a80546001600160a01b038381166001600160a01b0319831681179093556040519116919082907f8be0079c531659141344cd1fd0a4f28419497f9722a3daafe3b4186f6b6457e090600090a35050565b6000807a184f03e93ff9f4daa797ed6e38ed64bf6a1f01000000000000000083106200031e577a184f03e93ff9f4daa797ed6e38ed64bf6a1f010000000000000000830492506040015b6d04ee2d6d415b85acef810000000083106200034b576d04ee2d6d415b85acef8100000000830492506020015b662386f26fc1000083106200036a57662386f26fc10000830492506010015b6305f5e100831062000383576305f5e100830492506008015b61271083106200039857612710830492506004015b60648310620003ab576064830492506002015b600a8310620003b8576001015b92915050565b634e487b7160e01b600052604160045260246000fd5b600181811c90821680620003e957607f821691505b6020821081036200040a57634e487b7160e01b600052602260045260246000fd5b50919050565b601f8211156200045e57600081815260208120601f850160051c81016020861015620004395750805b601f850160051c820191505b818110156200045a5782815560010162000445565b5050505b505050565b81516001600160401b038111156200047f576200047f620003be565b6200049781620004908454620003d4565b8462000410565b602080601f831160018114620004cf5760008415620004b65750858301515b600019600386901b1c1916600185901b1785556200045a565b600085815260208120601f198616915b828110156200050057888601518255948401946001909101908401620004df565b50858210156200051f5787850151600019600388901b60f8161c191681555b5050505050600190811b01905550565b600080600080608085870312156200054657600080fd5b845193506020850151925060408501519150606085015160ff811681146200056d57600080fd5b939692955090935050565b6000815160005b818110156200059b57602081850181015186830152016200057f565b50600093019283525090919050565b6000620005c3620005bc838662000578565b8462000578565b949350505050565b60805160a05160c05160e05161274d62000636600039600081816106d401528181610c4e015261114001526000818161058b01528181610c94015261111a01526000818161061e01528181610c0e01526110f401526000818161032801526110c0015261274d6000f3fe60806040526004361061020f5760003560e01c80637957529411610118578063a035b1fe116100a0578063d5abeb011161006f578063d5abeb011461060f578063e8a3d48514610642578063e985e9c514610657578063f2fde38b146106a0578063f8b1cb3c146106c057600080fd5b8063a035b1fe1461057c578063a22cb465146105af578063b88d4fde146105cf578063c87b56dd146105ef57600080fd5b80638b601b8a116100e75780638b601b8a146104da5780638da5cb5b1461050757806390a303ee14610525578063938e3d7b1461054757806395d89b411461056757600080fd5b806379575294146104875780637bf75f6c146104a75780637f485a8d146104ba5780637f7c4746146103ec57600080fd5b806342842e0e1161019b578063631c2bb81161016a578063631c2bb8146103ec5780636352211e1461041d5780636c0360eb1461043d57806370a0823114610452578063715018a61461047257600080fd5b806342842e0e1461036c5780634f6ccce71461038c57806351cff8d9146103ac57806355f804b3146103cc57600080fd5b806317f38959116101e257806317f38959146102c557806318160ddd146102da57806323b872dd146102f95780632a778c9b146103195780632f745c591461034c57600080fd5b806301ffc9a71461021457806306fdde0314610249578063081812fc1461026b578063095ea7b3146102a3575b600080fd5b34801561022057600080fd5b5061023461022f366004611f3e565b6106fe565b60405190151581526020015b60405180910390f35b34801561025557600080fd5b5061025e610729565b6040516102409190611fab565b34801561027757600080fd5b5061028b610286366004611fbe565b6107bb565b6040516001600160a01b039091168152602001610240565b3480156102af57600080fd5b506102c36102be366004611fec565b6107e2565b005b3480156102d157600080fd5b5061025e6108fc565b3480156102e657600080fd5b506008545b604051908152602001610240565b34801561030557600080fd5b506102c3610314366004612018565b61090b565b34801561032557600080fd5b507f00000000000000000000000000000000000000000000000000000000000000006102eb565b34801561035857600080fd5b506102eb610367366004611fec565b61093c565b34801561037857600080fd5b506102c3610387366004612018565b6109d2565b34801561039857600080fd5b506102eb6103a7366004611fbe565b6109ed565b3480156103b857600080fd5b506102eb6103c7366004612059565b610a80565b3480156103d857600080fd5b506102c36103e7366004612102565b610ac9565b3480156103f857600080fd5b5061025e6040518060400160405280600581526020016444524f502360d81b81525081565b34801561042957600080fd5b5061028b610438366004611fbe565b610ae1565b34801561044957600080fd5b5061025e610b41565b34801561045e57600080fd5b506102eb61046d366004612059565b610b50565b34801561047e57600080fd5b506102c3610bd6565b34801561049357600080fd5b506102c36104a2366004612102565b610bea565b6102eb6104b536600461214b565b610bfe565b3480156104c657600080fd5b506102c36104d536600461218a565b610d8d565b3480156104e657600080fd5b506104fa6104f5366004611fbe565b610ee4565b60405161024091906121ea565b34801561051357600080fd5b50600a546001600160a01b031661028b565b34801561053157600080fd5b5061053a611020565b6040516102409190612266565b34801561055357600080fd5b506102c3610562366004612102565b611190565b34801561057357600080fd5b5061025e6111a4565b34801561058857600080fd5b507f00000000000000000000000000000000000000000000000000000000000000006102eb565b3480156105bb57600080fd5b506102c36105ca366004612360565b6111b3565b3480156105db57600080fd5b506102c36105ea366004612393565b6111be565b3480156105fb57600080fd5b5061025e61060a366004611fbe565b6111f6565b34801561061b57600080fd5b507f00000000000000000000000000000000000000000000000000000000000000006102eb565b34801561064e57600080fd5b5061025e61125d565b34801561066357600080fd5b50610234610672366004612413565b6001600160a01b03918216600090815260056020908152604080832093909416825291909152205460ff1690565b3480156106ac57600080fd5b506102c36106bb366004612059565b61126c565b3480156106cc57600080fd5b5060405160ff7f0000000000000000000000000000000000000000000000000000000000000000168152602001610240565b60006001600160e01b0319821663780e9d6360e01b1480610723575061072382611450565b92915050565b60606000805461073890612431565b80601f016020809104026020016040519081016040528092919081815260200182805461076490612431565b80156107b15780601f10610786576101008083540402835291602001916107b1565b820191906000526020600020905b81548152906001019060200180831161079457829003601f168201915b5050505050905090565b60006107c6826114a0565b506000908152600460205260409020546001600160a01b031690565b60006107ed82610ae1565b9050806001600160a01b0316836001600160a01b03160361085f5760405162461bcd60e51b815260206004820152602160248201527f4552433732313a20617070726f76616c20746f2063757272656e74206f776e656044820152603960f91b60648201526084015b60405180910390fd5b336001600160a01b038216148061087b575061087b8133610672565b6108ed5760405162461bcd60e51b815260206004820152603d60248201527f4552433732313a20617070726f76652063616c6c6572206973206e6f7420746f60448201527f6b656e206f776e6572206f7220617070726f76656420666f7220616c6c0000006064820152608401610856565b6108f783836114ff565b505050565b6060600d805461073890612431565b610915338261156d565b6109315760405162461bcd60e51b815260040161085690612465565b6108f78383836115ec565b600061094783610b50565b82106109a95760405162461bcd60e51b815260206004820152602b60248201527f455243373231456e756d657261626c653a206f776e657220696e646578206f7560448201526a74206f6620626f756e647360a81b6064820152608401610856565b506001600160a01b03919091166000908152600660209081526040808320938352929052205490565b6108f7838383604051806020016040528060008152506111be565b60006109f860085490565b8210610a5b5760405162461bcd60e51b815260206004820152602c60248201527f455243373231456e756d657261626c653a20676c6f62616c20696e646578206f60448201526b7574206f6620626f756e647360a01b6064820152608401610856565b60088281548110610a6e57610a6e6124b2565b90600052602060002001549050919050565b6000610a8a61175d565b5060405147906001600160a01b0383169082156108fc029083906000818181858888f19350505050158015610ac3573d6000803e3d6000fd5b50919050565b610ad161175d565b600e610add8282612516565b5050565b6000818152600260205260408120546001600160a01b0316806107235760405162461bcd60e51b8152602060048201526018602482015277115490cdcc8c4e881a5b9d985b1a59081d1bdad95b88125160421b6044820152606401610856565b6060600e805461073890612431565b60006001600160a01b038216610bba5760405162461bcd60e51b815260206004820152602960248201527f4552433732313a2061646472657373207a65726f206973206e6f7420612076616044820152683634b21037bbb732b960b91b6064820152608401610856565b506001600160a01b031660009081526003602052604090205490565b610bde61175d565b610be860006117b7565b565b610bf261175d565b600d610add8282612516565b6000610c0861175d565b506008547f00000000000000000000000000000000000000000000000000000000000000008110610c4c5760405163d05cb60960e01b815260040160405180910390fd5b7f000000000000000000000000000000000000000000000000000000000000000060ff168360ff1610610c925760405163062e62f160e41b815260040160405180910390fd5b7f00000000000000000000000000000000000000000000000000000000000000003414610cd15760405162bfc92160e01b815260040160405180910390fd5b610cdb8282611809565b604080516060810190915260ff8416815260208101600081526040805180820182526000808252602082810182905293840191909152848152600f8352208251815460ff90911660ff19821681178355928401519192839161ffff191617610100836001811115610d4e57610d4e6121d4565b02179055506040919091015180516001830180546001600160a01b0319166001600160a01b039092169190911790556020015160029091015592915050565b610d9561175d565b6000848152600f602090815260408083206002909252909120546001600160a01b03838116911614610dda57604051630924ccb560e31b815260040160405180910390fd5b60008154610100900460ff166001811115610df757610df76121d4565b14610e1557604051639da7cee760e01b815260040160405180910390fd5b6040516331a9108f60e11b8152600481018490526001600160a01b038084169190861690636352211e90602401602060405180830381865afa158015610e5f573d6000803e3d6000fd5b505050506040513d601f19601f82011682018060405250810190610e8391906125d6565b6001600160a01b031614610eaa5760405163153e35b760e11b815260040160405180910390fd5b805461ff0019166101001781556001810180546001600160a01b0319166001600160a01b0395909516949094179093555060029091015550565b610eec611ec4565b6000828152600f60209081526040808320815160608101909252805460ff80821684529293919291840191610100909104166001811115610f2f57610f2f6121d4565b6001811115610f4057610f406121d4565b81526040805180820190915260018301546001600160a01b0316815260029092015460208381019190915201529050610f7860085490565b8310610f97576040516380f9b50d60e01b815260040160405180910390fd5b6040805160608101825284815290516331a9108f60e11b81526004810185905260208201903090636352211e90602401602060405180830381865afa158015610fe4573d6000803e3d6000fd5b505050506040513d601f19601f8201168201806040525081019061100891906125d6565b6001600160a01b031681526020019190915292915050565b61108960405180610160016040528060006001600160a01b03168152602001606081526020016060815260200160008152602001600081526020016000815260200160008152602001600060ff1681526020016060815260200160608152602001606081525090565b604051806101600160405280306001600160a01b031681526020016110ac6111a4565b81526020016110b9610729565b81526020017f000000000000000000000000000000000000000000000000000000000000000081526020016110ed60085490565b81526020017f000000000000000000000000000000000000000000000000000000000000000081526020017f000000000000000000000000000000000000000000000000000000000000000081526020017f000000000000000000000000000000000000000000000000000000000000000060ff16815260200161116f61125d565b815260200161117c6108fc565b8152602001611189610b41565b9052919050565b61119861175d565b600c610add8282612516565b60606001805461073890612431565b610add338383611823565b6111c8338361156d565b6111e45760405162461bcd60e51b815260040161085690612465565b6111f0848484846118f1565b50505050565b6060611201826114a0565b600061120b611924565b9050600081511161122b5760405180602001604052806000815250611256565b80611235846112e5565b6040516020016112469291906125f3565b6040516020818303038152906040525b9392505050565b6060600c805461073890612431565b61127461175d565b6001600160a01b0381166112d95760405162461bcd60e51b815260206004820152602660248201527f4f776e61626c653a206e6577206f776e657220697320746865207a65726f206160448201526564647265737360d01b6064820152608401610856565b6112e2816117b7565b50565b606060006112f283611378565b600101905060008167ffffffffffffffff81111561131257611312612076565b6040519080825280601f01601f19166020018201604052801561133c576020820181803683370190505b5090508181016020015b600019016f181899199a1a9b1b9c1cb0b131b232b360811b600a86061a8153600a850494508461134657509392505050565b60008072184f03e93ff9f4daa797ed6e38ed64bf6a1f0160401b83106113b75772184f03e93ff9f4daa797ed6e38ed64bf6a1f0160401b830492506040015b6d04ee2d6d415b85acef810000000083106113e3576d04ee2d6d415b85acef8100000000830492506020015b662386f26fc10000831061140157662386f26fc10000830492506010015b6305f5e1008310611419576305f5e100830492506008015b612710831061142d57612710830492506004015b6064831061143f576064830492506002015b600a83106107235760010192915050565b60006001600160e01b031982166380ac58cd60e01b148061148157506001600160e01b03198216635b5e139f60e01b145b8061072357506301ffc9a760e01b6001600160e01b0319831614610723565b6000818152600260205260409020546001600160a01b03166112e25760405162461bcd60e51b8152602060048201526018602482015277115490cdcc8c4e881a5b9d985b1a59081d1bdad95b88125160421b6044820152606401610856565b600081815260046020526040902080546001600160a01b0319166001600160a01b038416908117909155819061153482610ae1565b6001600160a01b03167f8c5be1e5ebec7d5bd14f71427d1e84f3dd0314c0f7b2291e5b200ac8c7c3b92560405160405180910390a45050565b60008061157983610ae1565b9050806001600160a01b0316846001600160a01b031614806115c057506001600160a01b0380821660009081526005602090815260408083209388168352929052205460ff165b806115e45750836001600160a01b03166115d9846107bb565b6001600160a01b0316145b949350505050565b826001600160a01b03166115ff82610ae1565b6001600160a01b0316146116255760405162461bcd60e51b815260040161085690612622565b6001600160a01b0382166116875760405162461bcd60e51b8152602060048201526024808201527f4552433732313a207472616e7366657220746f20746865207a65726f206164646044820152637265737360e01b6064820152608401610856565b6116948383836001611933565b826001600160a01b03166116a782610ae1565b6001600160a01b0316146116cd5760405162461bcd60e51b815260040161085690612622565b600081815260046020908152604080832080546001600160a01b03199081169091556001600160a01b0387811680865260038552838620805460001901905590871680865283862080546001019055868652600290945282852080549092168417909155905184937fddf252ad1be2c89b69c2b068fc378daa952ba7f163c4a11628f55a4df523b3ef91a4505050565b600a546001600160a01b03163314610be85760405162461bcd60e51b815260206004820181905260248201527f4f776e61626c653a2063616c6c6572206973206e6f7420746865206f776e65726044820152606401610856565b600a80546001600160a01b038381166001600160a01b0319831681179093556040519116919082907f8be0079c531659141344cd1fd0a4f28419497f9722a3daafe3b4186f6b6457e090600090a35050565b610add828260405180602001604052806000815250611a67565b816001600160a01b0316836001600160a01b0316036118845760405162461bcd60e51b815260206004820152601960248201527f4552433732313a20617070726f766520746f2063616c6c6572000000000000006044820152606401610856565b6001600160a01b03838116600081815260056020908152604080832094871680845294825291829020805460ff191686151590811790915591519182527f17307eab39ab6107e8899845ad3d59bd9653f200f220920489ca2b5937696c31910160405180910390a3505050565b6118fc8484846115ec565b61190884848484611a9a565b6111f05760405162461bcd60e51b815260040161085690612667565b606061192e610b41565b905090565b60018111156119a25760405162461bcd60e51b815260206004820152603560248201527f455243373231456e756d657261626c653a20636f6e7365637574697665207472604482015274185b9cd9995c9cc81b9bdd081cdd5c1c1bdc9d1959605a1b6064820152608401610856565b816001600160a01b0385166119fe576119f981600880546000838152600960205260408120829055600182018355919091527ff3f7a9fe364faab93b216da50a3214154f22a0a2b415b23a84c8169e8b636ee30155565b611a21565b836001600160a01b0316856001600160a01b031614611a2157611a218582611b9b565b6001600160a01b038416611a3d57611a3881611c38565b611a60565b846001600160a01b0316846001600160a01b031614611a6057611a608482611ce7565b5050505050565b611a718383611d2b565b611a7e6000848484611a9a565b6108f75760405162461bcd60e51b815260040161085690612667565b60006001600160a01b0384163b15611b9057604051630a85bd0160e11b81526001600160a01b0385169063150b7a0290611ade9033908990889088906004016126b9565b6020604051808303816000875af1925050508015611b19575060408051601f3d908101601f19168201909252611b16918101906126ec565b60015b611b76573d808015611b47576040519150601f19603f3d011682016040523d82523d6000602084013e611b4c565b606091505b508051600003611b6e5760405162461bcd60e51b815260040161085690612667565b805181602001fd5b6001600160e01b031916630a85bd0160e11b1490506115e4565b506001949350505050565b60006001611ba884610b50565b611bb29190612709565b600083815260076020526040902054909150808214611c05576001600160a01b03841660009081526006602090815260408083208584528252808320548484528184208190558352600790915290208190555b5060009182526007602090815260408084208490556001600160a01b039094168352600681528383209183525290812055565b600854600090611c4a90600190612709565b60008381526009602052604081205460088054939450909284908110611c7257611c726124b2565b906000526020600020015490508060088381548110611c9357611c936124b2565b6000918252602080832090910192909255828152600990915260408082208490558582528120556008805480611ccb57611ccb61272a565b6001900381819060005260206000200160009055905550505050565b6000611cf283610b50565b6001600160a01b039093166000908152600660209081526040808320868452825280832085905593825260079052919091209190915550565b6001600160a01b038216611d815760405162461bcd60e51b815260206004820181905260248201527f4552433732313a206d696e7420746f20746865207a65726f20616464726573736044820152606401610856565b6000818152600260205260409020546001600160a01b031615611de65760405162461bcd60e51b815260206004820152601c60248201527f4552433732313a20746f6b656e20616c7265616479206d696e746564000000006044820152606401610856565b611df4600083836001611933565b6000818152600260205260409020546001600160a01b031615611e595760405162461bcd60e51b815260206004820152601c60248201527f4552433732313a20746f6b656e20616c7265616479206d696e746564000000006044820152606401610856565b6001600160a01b038216600081815260036020908152604080832080546001019055848352600290915280822080546001600160a01b0319168417905551839291907fddf252ad1be2c89b69c2b068fc378daa952ba7f163c4a11628f55a4df523b3ef908290a45050565b6040805160608101825260008082526020820152908101611ee3611ee8565b905290565b6040805160608101909152600080825260208201908152602001611ee3604051806040016040528060006001600160a01b03168152602001600081525090565b6001600160e01b0319811681146112e257600080fd5b600060208284031215611f5057600080fd5b813561125681611f28565b60005b83811015611f76578181015183820152602001611f5e565b50506000910152565b60008151808452611f97816020860160208601611f5b565b601f01601f19169290920160200192915050565b6020815260006112566020830184611f7f565b600060208284031215611fd057600080fd5b5035919050565b6001600160a01b03811681146112e257600080fd5b60008060408385031215611fff57600080fd5b823561200a81611fd7565b946020939093013593505050565b60008060006060848603121561202d57600080fd5b833561203881611fd7565b9250602084013561204881611fd7565b929592945050506040919091013590565b60006020828403121561206b57600080fd5b813561125681611fd7565b634e487b7160e01b600052604160045260246000fd5b600067ffffffffffffffff808411156120a7576120a7612076565b604051601f8501601f19908116603f011681019082821181831017156120cf576120cf612076565b816040528093508581528686860111156120e857600080fd5b858560208301376000602087830101525050509392505050565b60006020828403121561211457600080fd5b813567ffffffffffffffff81111561212b57600080fd5b8201601f8101841361213c57600080fd5b6115e48482356020840161208c565b6000806040838503121561215e57600080fd5b823560ff8116811461216f57600080fd5b9150602083013561217f81611fd7565b809150509250929050565b600080600080608085870312156121a057600080fd5b8435935060208501356121b281611fd7565b92506040850135915060608501356121c981611fd7565b939692955090935050565b634e487b7160e01b600052602160045260246000fd5b815181526020808301516001600160a01b0390811682840152604080850151805160ff16918501919091529182015160c084019291906002811061223e57634e487b7160e01b600052602160045260246000fd5b606085015260409190910151805190911660808401526020015160a090920191909152919050565b602081526122806020820183516001600160a01b03169052565b6000602083015161016080604085015261229e610180850183611f7f565b91506040850151601f19808685030160608701526122bc8483611f7f565b935060608701516080870152608087015160a087015260a087015160c087015260c087015160e087015260e087015191506101006122fe8188018460ff169052565b8088015192505061012081878603018188015261231b8584611f7f565b94508088015192505061014081878603018188015261233a8584611f7f565b9088015187820390920184880152935090506123568382611f7f565b9695505050505050565b6000806040838503121561237357600080fd5b823561237e81611fd7565b91506020830135801515811461217f57600080fd5b600080600080608085870312156123a957600080fd5b84356123b481611fd7565b935060208501356123c481611fd7565b925060408501359150606085013567ffffffffffffffff8111156123e757600080fd5b8501601f810187136123f857600080fd5b6124078782356020840161208c565b91505092959194509250565b6000806040838503121561242657600080fd5b823561216f81611fd7565b600181811c9082168061244557607f821691505b602082108103610ac357634e487b7160e01b600052602260045260246000fd5b6020808252602d908201527f4552433732313a2063616c6c6572206973206e6f7420746f6b656e206f776e6560408201526c1c881bdc88185c1c1c9bdd9959609a1b606082015260800190565b634e487b7160e01b600052603260045260246000fd5b601f8211156108f757600081815260208120601f850160051c810160208610156124ef5750805b601f850160051c820191505b8181101561250e578281556001016124fb565b505050505050565b815167ffffffffffffffff81111561253057612530612076565b6125448161253e8454612431565b846124c8565b602080601f83116001811461257957600084156125615750858301515b600019600386901b1c1916600185901b17855561250e565b600085815260208120601f198616915b828110156125a857888601518255948401946001909101908401612589565b50858210156125c65787850151600019600388901b60f8161c191681555b5050505050600190811b01905550565b6000602082840312156125e857600080fd5b815161125681611fd7565b60008351612605818460208801611f5b565b835190830190612619818360208801611f5b565b01949350505050565b60208082526025908201527f4552433732313a207472616e736665722066726f6d20696e636f72726563742060408201526437bbb732b960d91b606082015260800190565b60208082526032908201527f4552433732313a207472616e7366657220746f206e6f6e20455243373231526560408201527131b2b4bb32b91034b6b83632b6b2b73a32b960711b606082015260800190565b6001600160a01b038581168252841660208201526040810183905260806060820181905260009061235690830184611f7f565b6000602082840312156126fe57600080fd5b815161125681611f28565b8181038181111561072357634e487b7160e01b600052601160045260246000fd5b634e487b7160e01b600052603160045260246000fdfea164736f6c6343000812000aa164736f6c6343000812000a",
  "devdoc": {
    "author": "premierstudio.xyz",
    "kind": "dev",
    "methods": {
      "createDrop(uint256,uint256,uint8)": {
        "details": "Create a Drop."
      },
      "dripInfo(uint256,uint256)": {
        "details": "Returns the Drip info matching the drop id and drip id."
      },
      "drop(uint256)": {
        "details": "Returns the Drop contract matching the drop id."
      },
      "dropInfo(uint256)": {
        "details": "Returns the Drop info matching the drop id."
      },
      "dropSupply()": {
        "details": "Returns the drop supply."
      },
      "mint(uint256,uint8)": {
        "details": "Mint a Drip."
      },
      "mutate(uint256,uint256,address,uint256)": {
        "details": "Mutate a Drip."
      },
      "owner()": {
        "details": "Returns the address of the current owner."
      },
      "renounceOwnership()": {
        "details": "Leaves the contract without owner. It will not be possible to call `onlyOwner` functions anymore. Can only be called by the current owner. NOTE: Renouncing ownership will leave the contract without an owner, thereby removing any functionality that is only available to the owner."
      },
      "setBaseURI(uint256,string)": {
        "details": "Set the baseURI of a Drop."
      },
      "setContractURI(uint256,string)": {
        "details": "Set the contractURI of a Drop."
      },
      "setDropURI(uint256,string)": {
        "details": "Set the dropURI of a DROP."
      },
      "transferOwnership(address)": {
        "details": "Transfers ownership of the contract to a new account (`newOwner`). Can only be called by the current owner."
      },
      "withdraw(uint256)": {
        "details": "Withdraw funds from Drop."
      }
    },
    "title": "Store",
    "version": 1
  },
  "userdoc": {
    "kind": "user",
    "methods": {},
    "version": 1
  },
  "storageLayout": {
    "storage": [
      {
        "astId": 126,
        "contract": "contracts/system/Store.sol:Store",
        "label": "_status",
        "offset": 0,
        "slot": "0",
        "type": "t_uint256"
      },
      {
        "astId": 7,
        "contract": "contracts/system/Store.sol:Store",
        "label": "_owner",
        "offset": 0,
        "slot": "1",
        "type": "t_address"
      },
      {
        "astId": 4317,
        "contract": "contracts/system/Store.sol:Store",
        "label": "DROP_SUPPLY",
        "offset": 0,
        "slot": "2",
        "type": "t_uint256"
      },
      {
        "astId": 4322,
        "contract": "contracts/system/Store.sol:Store",
        "label": "dropIdToDrop",
        "offset": 0,
        "slot": "3",
        "type": "t_mapping(t_uint256,t_contract(Drop)4295)"
      }
    ],
    "types": {
      "t_address": {
        "encoding": "inplace",
        "label": "address",
        "numberOfBytes": "20"
      },
      "t_contract(Drop)4295": {
        "encoding": "inplace",
        "label": "contract Drop",
        "numberOfBytes": "20"
      },
      "t_mapping(t_uint256,t_contract(Drop)4295)": {
        "encoding": "mapping",
        "key": "t_uint256",
        "label": "mapping(uint256 => contract Drop)",
        "numberOfBytes": "32",
        "value": "t_contract(Drop)4295"
      },
      "t_uint256": {
        "encoding": "inplace",
        "label": "uint256",
        "numberOfBytes": "32"
      }
    }
  }
}