{
  "address": "0xeb17A0381Aec64Db6a42e1be8c598e6e92b9a197",
  "abi": [
    {
      "anonymous": false,
      "inputs": [
        {
          "indexed": true,
          "internalType": "uint256",
          "name": "dropId",
          "type": "uint256"
        }
      ],
      "name": "DropCreated",
      "type": "event"
    },
    {
      "anonymous": false,
      "inputs": [
        {
          "indexed": true,
          "internalType": "address",
          "name": "previousOwner",
          "type": "address"
        },
        {
          "indexed": true,
          "internalType": "address",
          "name": "newOwner",
          "type": "address"
        }
      ],
      "name": "OwnershipTransferred",
      "type": "event"
    },
    {
      "inputs": [
        {
          "internalType": "uint256",
          "name": "maxSupply",
          "type": "uint256"
        },
        {
          "internalType": "uint256",
          "name": "mintPrice",
          "type": "uint256"
        },
        {
          "internalType": "uint8",
          "name": "versions",
          "type": "uint8"
        }
      ],
      "name": "createDrop",
      "outputs": [],
      "stateMutability": "nonpayable",
      "type": "function"
    },
    {
      "inputs": [
        {
          "internalType": "uint256",
          "name": "dropId",
          "type": "uint256"
        }
      ],
      "name": "drop",
      "outputs": [
        {
          "internalType": "contract Drop",
          "name": "",
          "type": "address"
        }
      ],
      "stateMutability": "view",
      "type": "function"
    },
    {
      "inputs": [
        {
          "internalType": "address",
          "name": "owner",
          "type": "address"
        }
      ],
      "name": "getDrips",
      "outputs": [
        {
          "components": [
            {
              "internalType": "uint256",
              "name": "id",
              "type": "uint256"
            },
            {
              "components": [
                {
                  "internalType": "address",
                  "name": "_contract",
                  "type": "address"
                },
                {
                  "internalType": "string",
                  "name": "symbol",
                  "type": "string"
                },
                {
                  "internalType": "string",
                  "name": "name",
                  "type": "string"
                },
                {
                  "internalType": "uint256",
                  "name": "id",
                  "type": "uint256"
                },
                {
                  "internalType": "uint256",
                  "name": "currentSupply",
                  "type": "uint256"
                },
                {
                  "internalType": "uint256",
                  "name": "maxSupply",
                  "type": "uint256"
                },
                {
                  "internalType": "uint256",
                  "name": "price",
                  "type": "uint256"
                },
                {
                  "internalType": "uint8",
                  "name": "versions",
                  "type": "uint8"
                },
                {
                  "internalType": "string",
                  "name": "contractURI",
                  "type": "string"
                },
                {
                  "internalType": "string",
                  "name": "dropURI",
                  "type": "string"
                },
                {
                  "internalType": "string",
                  "name": "baseURI",
                  "type": "string"
                }
              ],
              "internalType": "struct DropData",
              "name": "drop",
              "type": "tuple"
            },
            {
              "internalType": "address",
              "name": "owner",
              "type": "address"
            },
            {
              "components": [
                {
                  "internalType": "uint8",
                  "name": "version",
                  "type": "uint8"
                },
                {
                  "internalType": "enum DripStatus",
                  "name": "status",
                  "type": "uint8"
                },
                {
                  "components": [
                    {
                      "internalType": "address",
                      "name": "tokenContract",
                      "type": "address"
                    },
                    {
                      "internalType": "uint256",
                      "name": "tokenId",
                      "type": "uint256"
                    }
                  ],
                  "internalType": "struct DripMutation",
                  "name": "mutation",
                  "type": "tuple"
                }
              ],
              "internalType": "struct Drip",
              "name": "drip",
              "type": "tuple"
            }
          ],
          "internalType": "struct DripData[][]",
          "name": "",
          "type": "tuple[][]"
        }
      ],
      "stateMutability": "view",
      "type": "function"
    },
    {
      "inputs": [],
      "name": "owner",
      "outputs": [
        {
          "internalType": "address",
          "name": "",
          "type": "address"
        }
      ],
      "stateMutability": "view",
      "type": "function"
    },
    {
      "inputs": [],
      "name": "renounceOwnership",
      "outputs": [],
      "stateMutability": "nonpayable",
      "type": "function"
    },
    {
      "inputs": [],
      "name": "totalSupply",
      "outputs": [
        {
          "internalType": "uint256",
          "name": "",
          "type": "uint256"
        }
      ],
      "stateMutability": "view",
      "type": "function"
    },
    {
      "inputs": [
        {
          "internalType": "address",
          "name": "newOwner",
          "type": "address"
        }
      ],
      "name": "transferOwnership",
      "outputs": [],
      "stateMutability": "nonpayable",
      "type": "function"
    }
  ],
  "transactionHash": "0x2f3553838a0ac4970fa251e2f4c3f068877988fba5c64f945b430995387c3edd",
  "args": [],
  "numDeployments": 1,
  "solcInputHash": "3c18fd42717ec1a051d2bc021d0ff335",
  "bytecode": "0x6080604052600060015534801561001557600080fd5b5061001f33610024565b610074565b600080546001600160a01b038381166001600160a01b0319831681178455604051919092169283917f8be0079c531659141344cd1fd0a4f28419497f9722a3daafe3b4186f6b6457e09190a35050565b61441b806100836000396000f3fe60806040523480156200001157600080fd5b5060043610620000875760003560e01c80633115664b11620000625780633115664b1462000100578063715018a614620001265780638da5cb5b1462000130578063f2fde38b146200014257600080fd5b80630d88b460146200008c57806318160ddd14620000a5578063211d9a5314620000bb575b600080fd5b620000a36200009d36600462000736565b62000159565b005b6001546040519081526020015b60405180910390f35b620000e7620000cc36600462000772565b6000908152600260205260409020546001600160a01b031690565b6040516001600160a01b039091168152602001620000b2565b6200011762000111366004620007a2565b62000241565b604051620000b2919062000873565b620000a3620004f9565b6000546001600160a01b0316620000e7565b620000a362000153366004620007a2565b62000511565b6200016362000594565b60006200016f60015490565b90508084848433604051620001849062000640565b9485526020850193909352604084019190915260ff1660608301526001600160a01b0316608082015260a001604051809103906000f080158015620001cd573d6000803e3d6000fd5b50600082815260026020526040812080546001600160a01b0319166001600160a01b03939093169290921790915560018054916200020b8362000a57565b909155505060405181907f01a6d33d95d2560a8c53f00317beb1d0364b3ecf2d43f647d2b4671df27f4f4590600090a250505050565b6060600060015467ffffffffffffffff81111562000263576200026362000a7f565b6040519080825280602002602001820160405280156200029857816020015b6060815260200190600190039081620002825790505b50905060005b600154811015620004f2576000818152600260205260408082205490516370a0823160e01b81526001600160a01b038781166004830152909116919082906370a0823190602401602060405180830381865afa15801562000303573d6000803e3d6000fd5b505050506040513d601f19601f8201168201806040525081019062000329919062000a95565b905060008167ffffffffffffffff81111562000349576200034962000a7f565b6040519080825280602002602001820160405280156200038657816020015b620003726200064e565b815260200190600190039081620003685790505b50905060005b82811015620004b757604051632f745c5960e01b81526001600160a01b0389811660048301526024820183905260009190861690632f745c5990604401602060405180830381865afa158015620003e7573d6000803e3d6000fd5b505050506040513d601f19601f820116820180604052508101906200040d919062000a95565b604051632c1935bd60e11b8152600481018290529091506001600160a01b038616906358326b7a90602401600060405180830381865afa15801562000456573d6000803e3d6000fd5b505050506040513d6000823e601f3d908101601f1916820160405262000480919081019062000c8d565b83838151811062000495576200049562000e56565b6020026020010181905250508080620004ae9062000a57565b9150506200038c565b5080858581518110620004ce57620004ce62000e56565b60200260200101819052505050508080620004e99062000a57565b9150506200029e565b5092915050565b6200050362000594565b6200050f6000620005f0565b565b6200051b62000594565b6001600160a01b038116620005865760405162461bcd60e51b815260206004820152602660248201527f4f776e61626c653a206e6577206f776e657220697320746865207a65726f206160448201526564647265737360d01b60648201526084015b60405180910390fd5b6200059181620005f0565b50565b6000546001600160a01b031633146200050f5760405162461bcd60e51b815260206004820181905260248201527f4f776e61626c653a2063616c6c6572206973206e6f7420746865206f776e657260448201526064016200057d565b600080546001600160a01b038381166001600160a01b0319831681178455604051919092169283917f8be0079c531659141344cd1fd0a4f28419497f9722a3daafe3b4186f6b6457e09190a35050565b6135a28062000e6d83390190565b604051806080016040528060008152602001620006ca60405180610160016040528060006001600160a01b03168152602001606081526020016060815260200160008152602001600081526020016000815260200160008152602001600060ff1681526020016060815260200160608152602001606081525090565b815260006020820152604001620006e0620006e5565b905290565b6040805160608101909152600080825260208201908152602001620006e0604051806040016040528060006001600160a01b03168152602001600081525090565b60ff811681146200059157600080fd5b6000806000606084860312156200074c57600080fd5b83359250602084013591506040840135620007678162000726565b809150509250925092565b6000602082840312156200078557600080fd5b5035919050565b6001600160a01b03811681146200059157600080fd5b600060208284031215620007b557600080fd5b8135620007c2816200078c565b9392505050565b60005b83811015620007e6578181015183820152602001620007cc565b50506000910152565b6000815180845262000809816020860160208601620007c9565b601f01601f19169290920160200192915050565b60ff81511682526020810151600281106200084857634e487b7160e01b600052602160045260246000fd5b60208381019190915260409182015180516001600160a01b0316928401929092520151606090910152565b6000602080830181845280855180835260408601915060408160051b870101925083870160005b8281101562000a4a57878503603f19018452815180518087529087019087870190600581901b8801890160005b8281101562000a3357601f198a83030184528451805183528b81015160e08d8501526200090060e0850182516001600160a01b03169052565b8c81015161016061010081818801526200091f610240880184620007ef565b9250604084015160df19610120818a870301818b0152620009418684620007ef565b95506060870151925061014083818c01526080880151868c015260a08801516101808c015260c08801516101a08c015260e08801519550620009896101c08c018760ff169052565b848801519550828b8803016101e08c0152620009a68787620007ef565b9650818801519550828b8803016102008c0152620009c58787620007ef565b9650808801519750505080898603016102208a015250505050620009ea8183620007ef565b915050604082015162000a0860408601826001600160a01b03169052565b506060820151915062000a1f60608501836200081d565b958c0195948c0194925050600101620008c7565b50975050509386019350908501906001016200089a565b5092979650505050505050565b60006001820162000a7857634e487b7160e01b600052601160045260246000fd5b5060010190565b634e487b7160e01b600052604160045260246000fd5b60006020828403121562000aa857600080fd5b5051919050565b6040805190810167ffffffffffffffff8111828210171562000ad55762000ad562000a7f565b60405290565b6040516080810167ffffffffffffffff8111828210171562000ad55762000ad562000a7f565b604051610160810167ffffffffffffffff8111828210171562000ad55762000ad562000a7f565b805162000b35816200078c565b919050565b600082601f83011262000b4c57600080fd5b815167ffffffffffffffff8082111562000b6a5762000b6a62000a7f565b604051601f8301601f19908116603f0116810190828211818310171562000b955762000b9562000a7f565b8160405283815286602085880101111562000baf57600080fd5b62000bc2846020830160208901620007c9565b9695505050505050565b805162000b358162000726565b6000818303608081121562000bed57600080fd5b6040516060810181811067ffffffffffffffff8211171562000c135762000c1362000a7f565b8060405250809250835162000c288162000726565b815260208401516002811062000c3d57600080fd5b60208201526040603f198301121562000c5557600080fd5b62000c5f62000aaf565b9150604084015162000c71816200078c565b8083525060608401516020830152816040820152505092915050565b60006020828403121562000ca057600080fd5b815167ffffffffffffffff8082111562000cb957600080fd5b9083019060e0828603121562000cce57600080fd5b62000cd862000adb565b8251815260208301518281111562000cef57600080fd5b8301610160818803121562000d0357600080fd5b62000d0d62000b01565b62000d188262000b28565b815260208201518481111562000d2d57600080fd5b62000d3b8982850162000b3a565b60208301525060408201518481111562000d5457600080fd5b62000d628982850162000b3a565b604083015250606082015160608201526080820151608082015260a082015160a082015260c082015160c082015262000d9e60e0830162000bcc565b60e0820152610100808301518581111562000db857600080fd5b62000dc68a82860162000b3a565b828401525050610120808301518581111562000de157600080fd5b62000def8a82860162000b3a565b828401525050610140808301518581111562000e0a57600080fd5b62000e188a82860162000b3a565b828401525050806020840152505062000e346040840162000b28565b604082015262000e48866060850162000bd9565b606082015295945050505050565b634e487b7160e01b600052603260045260246000fdfe6101206040526000610100908152600c906200001c90826200052b565b50604080516020810190915260008152600d906200003b90826200052b565b50604080516020810190915260008152600e906200005a90826200052b565b503480156200006857600080fd5b50604051620035a2380380620035a28339810160408190526200008b91620005f7565b60408051808201909152600581526444524f502360d81b6020820152620000b286620001cc565b604051602001620000c592919062000695565b60408051601f19818403018152828201909152600582526444524f502360d81b602083015290620000f687620001cc565b6040516020016200010992919062000695565b60408051601f1981840301815291905260006200012783826200052b565b5060016200013682826200052b565b505050620001536200014d6200026560201b60201c565b62000269565b6001600b5560008490036200017b5760405163066f305360e21b815260040160405180910390fd5b8160ff16600003620001a057604051631e54b82b60e11b815260040160405180910390fd5b608085905260a084905260c083905260ff821660e052620001c181620002bb565b5050505050620006b6565b60606000620001db836200033e565b60010190506000816001600160401b03811115620001fd57620001fd62000486565b6040519080825280601f01601f19166020018201604052801562000228576020820181803683370190505b5090508181016020015b600019016f181899199a1a9b1b9c1cb0b131b232b360811b600a86061a8153600a85049450846200023257509392505050565b3390565b600a80546001600160a01b038381166001600160a01b0319831681179093556040519116919082907f8be0079c531659141344cd1fd0a4f28419497f9722a3daafe3b4186f6b6457e090600090a35050565b620002c562000428565b6001600160a01b038116620003305760405162461bcd60e51b815260206004820152602660248201527f4f776e61626c653a206e6577206f776e657220697320746865207a65726f206160448201526564647265737360d01b60648201526084015b60405180910390fd5b6200033b8162000269565b50565b6000807a184f03e93ff9f4daa797ed6e38ed64bf6a1f010000000000000000831062000388577a184f03e93ff9f4daa797ed6e38ed64bf6a1f010000000000000000830492506040015b6d04ee2d6d415b85acef81000000008310620003b5576d04ee2d6d415b85acef8100000000830492506020015b662386f26fc100008310620003d457662386f26fc10000830492506010015b6305f5e1008310620003ed576305f5e100830492506008015b61271083106200040257612710830492506004015b6064831062000415576064830492506002015b600a831062000422576001015b92915050565b600a546001600160a01b03163314620004845760405162461bcd60e51b815260206004820181905260248201527f4f776e61626c653a2063616c6c6572206973206e6f7420746865206f776e6572604482015260640162000327565b565b634e487b7160e01b600052604160045260246000fd5b600181811c90821680620004b157607f821691505b602082108103620004d257634e487b7160e01b600052602260045260246000fd5b50919050565b601f8211156200052657600081815260208120601f850160051c81016020861015620005015750805b601f850160051c820191505b8181101562000522578281556001016200050d565b5050505b505050565b81516001600160401b0381111562000547576200054762000486565b6200055f816200055884546200049c565b84620004d8565b602080601f8311600181146200059757600084156200057e5750858301515b600019600386901b1c1916600185901b17855562000522565b600085815260208120601f198616915b82811015620005c857888601518255948401946001909101908401620005a7565b5085821015620005e75787850151600019600388901b60f8161c191681555b5050505050600190811b01905550565b600080600080600060a086880312156200061057600080fd5b855194506020860151935060408601519250606086015160ff811681146200063757600080fd5b60808701519092506001600160a01b03811681146200065557600080fd5b809150509295509295909350565b6000815160005b818110156200068657602081850181015186830152016200066a565b50600093019283525090919050565b6000620006ae620006a7838662000663565b8462000663565b949350505050565b60805160a05160c05160e051612e656200073d6000396000818161084b015281816109610152818161137301526117e40152600081816106e30152818161077c015281816113b901526117be0152600081816103f70152818161088e0152818161133301526117980152600081816103a10152818161063901526117640152612e656000f3fe6080604052600436106102885760003560e01c806370a082311161015a578063a035b1fe116100c1578063d5abeb011161007a578063d5abeb011461087f578063e8a3d485146108b2578063e985e9c5146108c7578063f2fde38b14610910578063f751cd8f14610930578063f8b1cb3c1461095257600080fd5b8063a035b1fe1461076d578063a22cb465146107a0578063b88d4fde146107c0578063c87b56dd146107e0578063cf75b1fe14610800578063d1eebc921461083957600080fd5b80637f7c4746116101135780637f7c4746146105795780638d859f3e146106d15780638da5cb5b14610705578063938e3d7b1461072357806395d89b411461074357806399dc52e81461075857600080fd5b806370a08231146105f2578063715018a6146106125780637373f63114610627578063763ad2011461065b57806379404f2d1461067b57806379575294146106b157600080fd5b80633ccfd60b116101fe57806356b4f673116101b757806356b4f6731461053757806358326b7a1461054c578063631c2bb8146105795780636352211e146105aa5780636c0360eb146105ca5780636ecd2306146105df57600080fd5b80633ccfd60b1461043957806342842e0e1461044e5780634f6ccce71461046e578063508976741461048e578063555a9a03146104a357806355f804b31461051757600080fd5b806318160ddd1161025057806318160ddd1461035357806323b872dd146103725780632a778c9b146103925780632f745c59146103c557806332cb6b0c146103e5578063361c60361461041957600080fd5b806301ffc9a71461028d57806306fdde03146102c2578063081812fc146102e4578063095ea7b31461031c57806317f389591461033e575b600080fd5b34801561029957600080fd5b506102ad6102a83660046125e1565b610985565b60405190151581526020015b60405180910390f35b3480156102ce57600080fd5b506102d76109b0565b6040516102b9919061264e565b3480156102f057600080fd5b506103046102ff366004612661565b610a42565b6040516001600160a01b0390911681526020016102b9565b34801561032857600080fd5b5061033c61033736600461268f565b610a69565b005b34801561034a57600080fd5b506102d7610b83565b34801561035f57600080fd5b506008545b6040519081526020016102b9565b34801561037e57600080fd5b5061033c61038d3660046126bb565b610b92565b34801561039e57600080fd5b507f0000000000000000000000000000000000000000000000000000000000000000610364565b3480156103d157600080fd5b506103646103e036600461268f565b610bc3565b3480156103f157600080fd5b506103647f000000000000000000000000000000000000000000000000000000000000000081565b34801561042557600080fd5b5061033c6104343660046126fc565b610c59565b34801561044557600080fd5b5061033c610f76565b34801561045a57600080fd5b5061033c6104693660046126bb565b611000565b34801561047a57600080fd5b50610364610489366004612661565b61101b565b34801561049a57600080fd5b506102d76110ae565b3480156104af57600080fd5b506105086104be366004612661565b600f602090815260009182526040918290208054835180850190945260018201546001600160a01b031684526002909101549183019190915260ff80821692610100909204169083565b6040516102b99392919061275b565b34801561052357600080fd5b5061033c61053236600461281d565b61113c565b34801561054357600080fd5b506102d7611154565b34801561055857600080fd5b5061056c610567366004612661565b611161565b6040516102b99190612943565b34801561058557600080fd5b506102d76040518060400160405280600581526020016444524f502360d81b81525081565b3480156105b657600080fd5b506103046105c5366004612661565b6112ad565b3480156105d657600080fd5b506102d761130d565b61033c6105ed3660046129c3565b61131c565b3480156105fe57600080fd5b5061036461060d3660046129e6565b6114e2565b34801561061e57600080fd5b5061033c611568565b34801561063357600080fd5b506103647f000000000000000000000000000000000000000000000000000000000000000081565b34801561066757600080fd5b5061033c610676366004612a03565b61157c565b34801561068757600080fd5b506103046106963660046129e6565b6010602052600090815260409020546001600160a01b031681565b3480156106bd57600080fd5b5061033c6106cc36600461281d565b6115b2565b3480156106dd57600080fd5b506103647f000000000000000000000000000000000000000000000000000000000000000081565b34801561071157600080fd5b50600a546001600160a01b0316610304565b34801561072f57600080fd5b5061033c61073e36600461281d565b6115c6565b34801561074f57600080fd5b506102d76115da565b34801561076457600080fd5b506102d76115e9565b34801561077957600080fd5b507f0000000000000000000000000000000000000000000000000000000000000000610364565b3480156107ac57600080fd5b5061033c6107bb366004612a4a565b6115f6565b3480156107cc57600080fd5b5061033c6107db366004612a78565b611601565b3480156107ec57600080fd5b506102d76107fb366004612661565b611639565b34801561080c57600080fd5b5061030461081b3660046129e6565b6001600160a01b039081166000908152601060205260409020541690565b34801561084557600080fd5b5061086d7f000000000000000000000000000000000000000000000000000000000000000081565b60405160ff90911681526020016102b9565b34801561088b57600080fd5b507f0000000000000000000000000000000000000000000000000000000000000000610364565b3480156108be57600080fd5b506102d76116a0565b3480156108d357600080fd5b506102ad6108e2366004612a03565b6001600160a01b03918216600090815260056020908152604080832093909416825291909152205460ff1690565b34801561091c57600080fd5b5061033c61092b3660046129e6565b6116af565b34801561093c57600080fd5b50610945611725565b6040516102b99190612af8565b34801561095e57600080fd5b507f000000000000000000000000000000000000000000000000000000000000000061086d565b60006001600160e01b0319821663780e9d6360e01b14806109aa57506109aa82611834565b92915050565b6060600080546109bf90612b0b565b80601f01602080910402602001604051908101604052809291908181526020018280546109eb90612b0b565b8015610a385780601f10610a0d57610100808354040283529160200191610a38565b820191906000526020600020905b815481529060010190602001808311610a1b57829003601f168201915b5050505050905090565b6000610a4d82611884565b506000908152600460205260409020546001600160a01b031690565b6000610a74826112ad565b9050806001600160a01b0316836001600160a01b031603610ae65760405162461bcd60e51b815260206004820152602160248201527f4552433732313a20617070726f76616c20746f2063757272656e74206f776e656044820152603960f91b60648201526084015b60405180910390fd5b336001600160a01b0382161480610b025750610b0281336108e2565b610b745760405162461bcd60e51b815260206004820152603d60248201527f4552433732313a20617070726f76652063616c6c6572206973206e6f7420746f60448201527f6b656e206f776e6572206f7220617070726f76656420666f7220616c6c0000006064820152608401610add565b610b7e83836118e3565b505050565b6060600d80546109bf90612b0b565b610b9c3382611951565b610bb85760405162461bcd60e51b8152600401610add90612b45565b610b7e8383836119d0565b6000610bce836114e2565b8210610c305760405162461bcd60e51b815260206004820152602b60248201527f455243373231456e756d657261626c653a206f776e657220696e646578206f7560448201526a74206f6620626f756e647360a81b6064820152608401610add565b506001600160a01b03919091166000908152600660209081526040808320938352929052205490565b610c61611b41565b6000838152600f602052604090206008548410610c91576040516380f9b50d60e01b815260040160405180910390fd5b6000848152600260205260409020546001600160a01b03163314610cc857604051630924ccb560e31b815260040160405180910390fd5b60008154610100900460ff166001811115610ce557610ce5612723565b14610d0357604051639da7cee760e01b815260040160405180910390fd5b6040516301ffc9a760e01b81526380ac58cd60e01b60048201526001600160a01b038416906301ffc9a790602401602060405180830381865afa925050508015610d6a575060408051601f3d908101601f19168201909252610d6791810190612b92565b60015b610e41576001600160a01b038381166000908152601060205260409020541680610da7576040516367c4ae1760e01b815260040160405180910390fd5b6040516331a9108f60e11b81526004810184905233906001600160a01b03831690636352211e906024016020604051808303816000875af1158015610df0573d6000803e3d6000fd5b505050506040513d601f19601f82011682018060405250810190610e149190612baf565b6001600160a01b031614610e3b5760405163153e35b760e11b815260040160405180910390fd5b50610f0f565b8015610ef4576040516331a9108f60e11b8152600481018490526001600160a01b03851690636352211e90602401602060405180830381865afa925050508015610ea8575060408051601f3d908101601f19168201909252610ea591810190612baf565b60015b610ec55760405163153e35b760e11b815260040160405180910390fd5b6001600160a01b0381163314610eee5760405163153e35b760e11b815260040160405180910390fd5b50610f0d565b6040516367c4ae1760e01b815260040160405180910390fd5b505b805461ff0019166101001781556001810180546001600160a01b0319166001600160a01b0385161790556002810182905560405184907fe0ff833392b9f001daba1da86ad0f9c9ab3f34ddd5a7dc6f7d3dffee0df8110e90600090a250610b7e6001600b55565b610f7e611b9a565b47610f91600a546001600160a01b031690565b6001600160a01b03166108fc829081150290604051600060405180830381858888f19350505050158015610fc9573d6000803e3d6000fd5b506040518181527f430648de173157e069201c943adb2d4e340e7cf5b27b1b09c9cb852f03d63b569060200160405180910390a150565b610b7e83838360405180602001604052806000815250611601565b600061102660085490565b82106110895760405162461bcd60e51b815260206004820152602c60248201527f455243373231456e756d657261626c653a20676c6f62616c20696e646578206f60448201526b7574206f6620626f756e647360a01b6064820152608401610add565b6008828154811061109c5761109c612bcc565b90600052602060002001549050919050565b600e80546110bb90612b0b565b80601f01602080910402602001604051908101604052809291908181526020018280546110e790612b0b565b80156111345780601f1061110957610100808354040283529160200191611134565b820191906000526020600020905b81548152906001019060200180831161111757829003601f168201915b505050505081565b611144611b9a565b600e6111508282612c30565b5050565b600c80546110bb90612b0b565b6111696124f2565b6000828152600f60209081526040808320815160608101909252805460ff808216845292939192918401916101009091041660018111156111ac576111ac612723565b60018111156111bd576111bd612723565b81526040805180820190915260018301546001600160a01b03168152600290920154602083810191909152015290506111f560085490565b8310611214576040516380f9b50d60e01b815260040160405180910390fd5b604051806080016040528084815260200161122d611725565b81526040516331a9108f60e11b8152600481018690526020909101903090636352211e90602401602060405180830381865afa158015611271573d6000803e3d6000fd5b505050506040513d601f19601f820116820180604052508101906112959190612baf565b6001600160a01b031681526020019190915292915050565b6000818152600260205260408120546001600160a01b0316806109aa5760405162461bcd60e51b8152602060048201526018602482015277115490cdcc8c4e881a5b9d985b1a59081d1bdad95b88125160421b6044820152606401610add565b6060600e80546109bf90612b0b565b611324611b41565b600061132f60085490565b90507f000000000000000000000000000000000000000000000000000000000000000081106113715760405163d05cb60960e01b815260040160405180910390fd5b7f000000000000000000000000000000000000000000000000000000000000000060ff168260ff16106113b75760405163062e62f160e41b815260040160405180910390fd5b7f000000000000000000000000000000000000000000000000000000000000000034146113f65760405162bfc92160e01b815260040160405180910390fd5b6114003382611bf4565b604080516060810190915260ff8316815260208101600081526040805180820182526000808252602082810182905293840191909152848152600f8352208251815460ff90911660ff19821681178355928401519192839161ffff19161761010083600181111561147357611473612723565b021790555060409182015180516001830180546001600160a01b0319166001600160a01b03909216919091179055602001516002909101555181907f176b02bb2d12439ff7a20b59f402cca16c76f50508b13ef3166a600eb719354a90600090a2506114df6001600b55565b50565b60006001600160a01b03821661154c5760405162461bcd60e51b815260206004820152602960248201527f4552433732313a2061646472657373207a65726f206973206e6f7420612076616044820152683634b21037bbb732b960b91b6064820152608401610add565b506001600160a01b031660009081526003602052604090205490565b611570611b9a565b61157a6000611c0e565b565b611584611b9a565b6001600160a01b03918216600090815260106020526040902080546001600160a01b03191691909216179055565b6115ba611b9a565b600d6111508282612c30565b6115ce611b9a565b600c6111508282612c30565b6060600180546109bf90612b0b565b600d80546110bb90612b0b565b611150338383611c60565b61160b3383611951565b6116275760405162461bcd60e51b8152600401610add90612b45565b61163384848484611d2e565b50505050565b606061164482611884565b600061164e61130d565b9050600081511161166e5760405180602001604052806000815250611699565b8061167884611d61565b604051602001611689929190612cf0565b6040516020818303038152906040525b9392505050565b6060600c80546109bf90612b0b565b6116b7611b9a565b6001600160a01b03811661171c5760405162461bcd60e51b815260206004820152602660248201527f4f776e61626c653a206e6577206f776e657220697320746865207a65726f206160448201526564647265737360d01b6064820152608401610add565b6114df81611c0e565b61172d612525565b604051806101600160405280306001600160a01b031681526020016117506115da565b815260200161175d6109b0565b81526020017f0000000000000000000000000000000000000000000000000000000000000000815260200161179160085490565b81526020017f000000000000000000000000000000000000000000000000000000000000000081526020017f000000000000000000000000000000000000000000000000000000000000000081526020017f000000000000000000000000000000000000000000000000000000000000000060ff1681526020016118136116a0565b8152602001611820610b83565b815260200161182d61130d565b9052919050565b60006001600160e01b031982166380ac58cd60e01b148061186557506001600160e01b03198216635b5e139f60e01b145b806109aa57506301ffc9a760e01b6001600160e01b03198316146109aa565b6000818152600260205260409020546001600160a01b03166114df5760405162461bcd60e51b8152602060048201526018602482015277115490cdcc8c4e881a5b9d985b1a59081d1bdad95b88125160421b6044820152606401610add565b600081815260046020526040902080546001600160a01b0319166001600160a01b0384169081179091558190611918826112ad565b6001600160a01b03167f8c5be1e5ebec7d5bd14f71427d1e84f3dd0314c0f7b2291e5b200ac8c7c3b92560405160405180910390a45050565b60008061195d836112ad565b9050806001600160a01b0316846001600160a01b031614806119a457506001600160a01b0380821660009081526005602090815260408083209388168352929052205460ff165b806119c85750836001600160a01b03166119bd84610a42565b6001600160a01b0316145b949350505050565b826001600160a01b03166119e3826112ad565b6001600160a01b031614611a095760405162461bcd60e51b8152600401610add90612d1f565b6001600160a01b038216611a6b5760405162461bcd60e51b8152602060048201526024808201527f4552433732313a207472616e7366657220746f20746865207a65726f206164646044820152637265737360e01b6064820152608401610add565b611a788383836001611df5565b826001600160a01b0316611a8b826112ad565b6001600160a01b031614611ab15760405162461bcd60e51b8152600401610add90612d1f565b600081815260046020908152604080832080546001600160a01b03199081169091556001600160a01b0387811680865260038552838620805460001901905590871680865283862080546001019055868652600290945282852080549092168417909155905184937fddf252ad1be2c89b69c2b068fc378daa952ba7f163c4a11628f55a4df523b3ef91a4505050565b6002600b5403611b935760405162461bcd60e51b815260206004820152601f60248201527f5265656e7472616e637947756172643a207265656e7472616e742063616c6c006044820152606401610add565b6002600b55565b600a546001600160a01b0316331461157a5760405162461bcd60e51b815260206004820181905260248201527f4f776e61626c653a2063616c6c6572206973206e6f7420746865206f776e65726044820152606401610add565b611150828260405180602001604052806000815250611f35565b600a80546001600160a01b038381166001600160a01b0319831681179093556040519116919082907f8be0079c531659141344cd1fd0a4f28419497f9722a3daafe3b4186f6b6457e090600090a35050565b816001600160a01b0316836001600160a01b031603611cc15760405162461bcd60e51b815260206004820152601960248201527f4552433732313a20617070726f766520746f2063616c6c6572000000000000006044820152606401610add565b6001600160a01b03838116600081815260056020908152604080832094871680845294825291829020805460ff191686151590811790915591519182527f17307eab39ab6107e8899845ad3d59bd9653f200f220920489ca2b5937696c31910160405180910390a3505050565b611d398484846119d0565b611d4584848484611f68565b6116335760405162461bcd60e51b8152600401610add90612d64565b60606000611d6e83612069565b600101905060008167ffffffffffffffff811115611d8e57611d8e612791565b6040519080825280601f01601f191660200182016040528015611db8576020820181803683370190505b5090508181016020015b600019016f181899199a1a9b1b9c1cb0b131b232b360811b600a86061a8153600a8504945084611dc2575b509392505050565b611e0184848484612141565b6001811115611e705760405162461bcd60e51b815260206004820152603560248201527f455243373231456e756d657261626c653a20636f6e7365637574697665207472604482015274185b9cd9995c9cc81b9bdd081cdd5c1c1bdc9d1959605a1b6064820152608401610add565b816001600160a01b038516611ecc57611ec781600880546000838152600960205260408120829055600182018355919091527ff3f7a9fe364faab93b216da50a3214154f22a0a2b415b23a84c8169e8b636ee30155565b611eef565b836001600160a01b0316856001600160a01b031614611eef57611eef85826121c9565b6001600160a01b038416611f0b57611f0681612266565b611f2e565b846001600160a01b0316846001600160a01b031614611f2e57611f2e8482612315565b5050505050565b611f3f8383612359565b611f4c6000848484611f68565b610b7e5760405162461bcd60e51b8152600401610add90612d64565b60006001600160a01b0384163b1561205e57604051630a85bd0160e11b81526001600160a01b0385169063150b7a0290611fac903390899088908890600401612db6565b6020604051808303816000875af1925050508015611fe7575060408051601f3d908101601f19168201909252611fe491810190612de9565b60015b612044573d808015612015576040519150601f19603f3d011682016040523d82523d6000602084013e61201a565b606091505b50805160000361203c5760405162461bcd60e51b8152600401610add90612d64565b805181602001fd5b6001600160e01b031916630a85bd0160e11b1490506119c8565b506001949350505050565b60008072184f03e93ff9f4daa797ed6e38ed64bf6a1f0160401b83106120a85772184f03e93ff9f4daa797ed6e38ed64bf6a1f0160401b830492506040015b6d04ee2d6d415b85acef810000000083106120d4576d04ee2d6d415b85acef8100000000830492506020015b662386f26fc1000083106120f257662386f26fc10000830492506010015b6305f5e100831061210a576305f5e100830492506008015b612710831061211e57612710830492506004015b60648310612130576064830492506002015b600a83106109aa5760010192915050565b6001811115611633576001600160a01b03841615612187576001600160a01b03841660009081526003602052604081208054839290612181908490612e1c565b90915550505b6001600160a01b03831615611633576001600160a01b038316600090815260036020526040812080548392906121be908490612e2f565b909155505050505050565b600060016121d6846114e2565b6121e09190612e1c565b600083815260076020526040902054909150808214612233576001600160a01b03841660009081526006602090815260408083208584528252808320548484528184208190558352600790915290208190555b5060009182526007602090815260408084208490556001600160a01b039094168352600681528383209183525290812055565b60085460009061227890600190612e1c565b600083815260096020526040812054600880549394509092849081106122a0576122a0612bcc565b9060005260206000200154905080600883815481106122c1576122c1612bcc565b60009182526020808320909101929092558281526009909152604080822084905585825281205560088054806122f9576122f9612e42565b6001900381819060005260206000200160009055905550505050565b6000612320836114e2565b6001600160a01b039093166000908152600660209081526040808320868452825280832085905593825260079052919091209190915550565b6001600160a01b0382166123af5760405162461bcd60e51b815260206004820181905260248201527f4552433732313a206d696e7420746f20746865207a65726f20616464726573736044820152606401610add565b6000818152600260205260409020546001600160a01b0316156124145760405162461bcd60e51b815260206004820152601c60248201527f4552433732313a20746f6b656e20616c7265616479206d696e746564000000006044820152606401610add565b612422600083836001611df5565b6000818152600260205260409020546001600160a01b0316156124875760405162461bcd60e51b815260206004820152601c60248201527f4552433732313a20746f6b656e20616c7265616479206d696e746564000000006044820152606401610add565b6001600160a01b038216600081815260036020908152604080832080546001019055848352600290915280822080546001600160a01b0319168417905551839291907fddf252ad1be2c89b69c2b068fc378daa952ba7f163c4a11628f55a4df523b3ef908290a45050565b60405180608001604052806000815260200161250c612525565b81526000602082015260400161252061258b565b905290565b60405180610160016040528060006001600160a01b03168152602001606081526020016060815260200160008152602001600081526020016000815260200160008152602001600060ff1681526020016060815260200160608152602001606081525090565b6040805160608101909152600080825260208201908152602001612520604051806040016040528060006001600160a01b03168152602001600081525090565b6001600160e01b0319811681146114df57600080fd5b6000602082840312156125f357600080fd5b8135611699816125cb565b60005b83811015612619578181015183820152602001612601565b50506000910152565b6000815180845261263a8160208601602086016125fe565b601f01601f19169290920160200192915050565b6020815260006116996020830184612622565b60006020828403121561267357600080fd5b5035919050565b6001600160a01b03811681146114df57600080fd5b600080604083850312156126a257600080fd5b82356126ad8161267a565b946020939093013593505050565b6000806000606084860312156126d057600080fd5b83356126db8161267a565b925060208401356126eb8161267a565b929592945050506040919091013590565b60008060006060848603121561271157600080fd5b8335925060208401356126eb8161267a565b634e487b7160e01b600052602160045260246000fd5b6002811061275757634e487b7160e01b600052602160045260246000fd5b9052565b60ff84168152608081016127726020830185612739565b82516001600160a01b03166040830152602083015160608301526119c8565b634e487b7160e01b600052604160045260246000fd5b600067ffffffffffffffff808411156127c2576127c2612791565b604051601f8501601f19908116603f011681019082821181831017156127ea576127ea612791565b8160405280935085815286868601111561280357600080fd5b858560208301376000602087830101525050509392505050565b60006020828403121561282f57600080fd5b813567ffffffffffffffff81111561284657600080fd5b8201601f8101841361285757600080fd5b6119c8848235602084016127a7565b80516001600160a01b031682526000610160602083015181602086015261288f82860182612622565b915050604083015184820360408601526128a98282612622565b915050606083015160608501526080830151608085015260a083015160a085015260c083015160c085015260e08301516128e860e086018260ff169052565b5061010080840151858303828701526129018382612622565b92505050610120808401518583038287015261291d8382612622565b9250505061014080840151858303828701526129398382612622565b9695505050505050565b60208152815160208201526000602083015160e0604084015261296a610100840182612866565b905060018060a01b036040850151166060840152606084015160ff8151166080850152602081015161299f60a0860182612739565b506040015180516001600160a01b031660c0850152602081015160e0850152611ded565b6000602082840312156129d557600080fd5b813560ff8116811461169957600080fd5b6000602082840312156129f857600080fd5b81356116998161267a565b60008060408385031215612a1657600080fd5b8235612a218161267a565b91506020830135612a318161267a565b809150509250929050565b80151581146114df57600080fd5b60008060408385031215612a5d57600080fd5b8235612a688161267a565b91506020830135612a3181612a3c565b60008060008060808587031215612a8e57600080fd5b8435612a998161267a565b93506020850135612aa98161267a565b925060408501359150606085013567ffffffffffffffff811115612acc57600080fd5b8501601f81018713612add57600080fd5b612aec878235602084016127a7565b91505092959194509250565b6020815260006116996020830184612866565b600181811c90821680612b1f57607f821691505b602082108103612b3f57634e487b7160e01b600052602260045260246000fd5b50919050565b6020808252602d908201527f4552433732313a2063616c6c6572206973206e6f7420746f6b656e206f776e6560408201526c1c881bdc88185c1c1c9bdd9959609a1b606082015260800190565b600060208284031215612ba457600080fd5b815161169981612a3c565b600060208284031215612bc157600080fd5b81516116998161267a565b634e487b7160e01b600052603260045260246000fd5b601f821115610b7e57600081815260208120601f850160051c81016020861015612c095750805b601f850160051c820191505b81811015612c2857828155600101612c15565b505050505050565b815167ffffffffffffffff811115612c4a57612c4a612791565b612c5e81612c588454612b0b565b84612be2565b602080601f831160018114612c935760008415612c7b5750858301515b600019600386901b1c1916600185901b178555612c28565b600085815260208120601f198616915b82811015612cc257888601518255948401946001909101908401612ca3565b5085821015612ce05787850151600019600388901b60f8161c191681555b5050505050600190811b01905550565b60008351612d028184602088016125fe565b835190830190612d168183602088016125fe565b01949350505050565b60208082526025908201527f4552433732313a207472616e736665722066726f6d20696e636f72726563742060408201526437bbb732b960d91b606082015260800190565b60208082526032908201527f4552433732313a207472616e7366657220746f206e6f6e20455243373231526560408201527131b2b4bb32b91034b6b83632b6b2b73a32b960711b606082015260800190565b6001600160a01b038581168252841660208201526040810183905260806060820181905260009061293990830184612622565b600060208284031215612dfb57600080fd5b8151611699816125cb565b634e487b7160e01b600052601160045260246000fd5b818103818111156109aa576109aa612e06565b808201808211156109aa576109aa612e06565b634e487b7160e01b600052603160045260246000fdfea164736f6c6343000813000aa164736f6c6343000813000a",
  "devdoc": {
    "author": "Maxime Aubanel - @sshmaxime",
    "kind": "dev",
    "methods": {
      "createDrop(uint256,uint256,uint8)": {
        "details": "Create a DROP."
      },
      "drop(uint256)": {
        "details": "Returns the DROP item matching the drop id."
      },
      "owner()": {
        "details": "Returns the address of the current owner."
      },
      "renounceOwnership()": {
        "details": "Leaves the contract without owner. It will not be possible to call `onlyOwner` functions anymore. Can only be called by the current owner. NOTE: Renouncing ownership will leave the contract without an owner, thereby removing any functionality that is only available to the owner."
      },
      "totalSupply()": {
        "details": "Returns the current supply."
      },
      "transferOwnership(address)": {
        "details": "Transfers ownership of the contract to a new account (`newOwner`). Can only be called by the current owner."
      }
    },
    "title": "Store",
    "version": 1
  },
  "userdoc": {
    "kind": "user",
    "methods": {},
    "version": 1
  },
  "storageLayout": {
    "storage": [
      {
        "astId": 7,
        "contract": "contracts/system/Store.sol:Store",
        "label": "_owner",
        "offset": 0,
        "slot": "0",
        "type": "t_address"
      },
      {
        "astId": 4484,
        "contract": "contracts/system/Store.sol:Store",
        "label": "TOTAL_SUPPLY",
        "offset": 0,
        "slot": "1",
        "type": "t_uint256"
      },
      {
        "astId": 4489,
        "contract": "contracts/system/Store.sol:Store",
        "label": "dropIdToDrop",
        "offset": 0,
        "slot": "2",
        "type": "t_mapping(t_uint256,t_contract(Drop)4469)"
      }
    ],
    "types": {
      "t_address": {
        "encoding": "inplace",
        "label": "address",
        "numberOfBytes": "20"
      },
      "t_contract(Drop)4469": {
        "encoding": "inplace",
        "label": "contract Drop",
        "numberOfBytes": "20"
      },
      "t_mapping(t_uint256,t_contract(Drop)4469)": {
        "encoding": "mapping",
        "key": "t_uint256",
        "label": "mapping(uint256 => contract Drop)",
        "numberOfBytes": "32",
        "value": "t_contract(Drop)4469"
      },
      "t_uint256": {
        "encoding": "inplace",
        "label": "uint256",
        "numberOfBytes": "32"
      }
    }
  }
}